:1001B70008240A0A0A0A0A0A0A0A081200000000A2
:0E01C7000000000008370000000000000000EB
:10027800E53170297531011201448F32E53065325C
:10028800FF5532F52FE532F45FF535853230E52F2D
:0E029800B4040A0534E534B40303E4F534225B
:1002F100E52E452D701CF52D752E01E53414600B8E
:1003010014600C2402700B75240B2275240C2275C9
:03031100240D2296
:1002A600E53470057538018003E4F538E534B401AA
:1002B600057539018003E4F539E534B40204753A6D
:0602C6000122E4F53A22DA
:08000300E52C7003752C0122AD
:10000E00538E7F5389F0758A18758CFCC28DD28CF5
:05001E00D2A9D2AF22BF
:03000B00020026CA
:10002600C0E0C0F0C083C082C0D075D000C000C0A0
:1000360001C002C003C004C005C006C0070531E503
:1000460031B40A03753100052EE52E7002052DFF29
:10005600AE2DBE0109BFF406752D00752E00052CC8
:10006600E52CB4C803752C000533E533B4080375D5
:10007600330074242533F8E6FD7C0074122533F82A
:10008600E6FB7A00AF3312023E74372533F8E6FDFD
:100096007C00AF33120203D007D006D005D004D0BF
:1000A60003D002D001D000D0D0D082D083D0F0D0FF
:0200B600E03236
:0300230002035A7B
:10035A00C0E0C0D075D000C00030980B741A2536A2
:0E036A00F8A6990536C298D000D0D0D0E03267
:1003AE0012037812000E1203C51202781202F11215
:0703BE0002A612000380F209
:1001D5000156000157FF0158000159FF015A00015E
:0201E5005BFFBE
:10020300ED4C600FA8077401088002C333D8FC4289
:1002130056800EA8077401088002C333D8FCF45239
:1002230056E55665576013E556F4F580E5A0541F6F
:0A0233004480F5A053A01F85565724
:01023D00229E
:10031400EF600543584080035358BFE55865596062
:1003240011855880E5A0541F44A0F5A053A01F8553
:02033400585916
:0103360022A4
:10033700EF6005435A108003535AEFE55A655B6037
:1003470011855A80E5A0541F44A0F5A053A01F852E
:020357005A5BEF
:010359002281
:1001E7000F3FC0F9A4B0999282F88090FF88C68C1F
:0B01F70088084E010204081020408020
:10023E007580FFE5A0541F44E0F5A053A01F744E37
:10024E002FF8E6F580E5A0541F44C0F5A053A01F7B
:10025E00743F2DF8E6F580EB4A600353807FE5A0EE
:0A026E00541F44E0F5A053A01F2226
:10014400E4FFC2C4D2C2D2B5D2B420B3027F042029
:10015400B2027F0520B1027F0620B0027F07D2C41D
:10016400C2C2D2B5D2B420B3027F0820B2027F0942
:1001740020B1027F0A20B0027F0BD2C4D2C2C2B522
:10018400D2B420B3027F0C20B2027F0D20B1027FD3
:100194000E20B0027F0FD2C4D2C2D2B5C2B420B3F3
:1001A400027F1020B2027F1120B1027F1220B00220
:0201B4007F13B7
:0101B6002226
:100378007580FFE5A0541F4480F5A053A01FE4F545
:0D03880080E5A0541F44A0F5A053A01F2243
:1003C500759850438E01438E0475D7C775D6FE4385
:0703D5008E10D2ACD2AF2262
:0803DC008F993099FDC29922AE
:1002CC008B5C8A5D895EAB5CAA5DA95E120395604E
:1002DC0013055EE55E7002055D14F9120395FF12BD
:0502EC0003DC80E222AA
:030000000200B843
:0C00B800787FE4F6D8FD75815E0200FF41
:10039500BB010689828A83E0225002E722BBFE0266
:0903A500E32289828A83E4932299
:1000C4000203AEE493A3F8E493A34003F68001F2A1
:1000D40008DFF48029E493A3F85407240CC8C3333D
:1000E400C4540F4420C8834004F456800146F6DF0C
:1000F400E4800B01020408102040809001B7E47EE4
:10010400019360BCA3FF543F30E509541FFEE49300
:10011400A360010ECF54C025E060A840B8E493A3C7
:10012400FAE493A3F8E493A3C8C582C8CAC583CAF2
:10013400F0A3C8C582C8CAC583CADFE9DEE780BEAA
:0102020000FB
:00000001FF
